:100000000AC008C007C006C005C004C003C002C0C3
:10001000A7C000C01895112420E0A0E6B0E001C000
:100020001D92A636B207E1F7789487B3876087BB45
:10003000C19AC298C098BC98C49ABB98C39AB49904
:100040000EC088E090E0909363008093620081E0AE
:1000500090E09093610080936000C09A0DC088E1A9
:1000600095E1909363008093620082EC91E090931D
:10007000610080936000C098B39914C080916200C1
:1000800090916300880F991F9093630080936200A2
:100090008091600090916100880F991F909361009A
:1000A0008093600090E080E0D0D0909365008093D2
:1000B000640020916400309165008091620090910D
:1000C00063002817390758F01092650010926400F9
:1000D000609164007091650090E080E0B9D084B7D1
:1000E000877F84BF81B5886181BD81E681BD479AE4
:1000F000379885B7877E806185BF85B7806285BF69
:100100007894889585B78F7D85BF2FEF86E791E03E
:10011000215080409040E1F700C000002091640031
:100120003091650080916200909163002817390733
:10013000F0F210926500109264006091640070917A
:10014000650090E080E084D0C1982FEF8BED95E0C2
:10015000215080409040E1F700C00000C19AC7CF15
:100160001F920F920FB60F9211242F933F934F932C
:100170005F936F937F938F939F93AF93BF93EF930F
:10018000FF938091640090916500019690936500C3
:1001900080936400809164009091650020916400D8
:1001A0003091650060916000709161008091620003
:1001B00090916300860F971F0197821B930B6BD062
:1001C00080E0C2988617A8F42FEF3BED95E0215010
:1001D00030409040E1F700C00000C29A2FEF3BEDA5
:1001E00095E0215030409040E1F700C000008F5F63
:1001F000E8CFB39909C0809164009091650080FDBB
:1002000002C0C09A01C0C0988091640090916500BE
:1002100062EC71E040D0892B39F4609164007091F8
:10022000650090E080E014D0FF91EF91BF91AF9115
:100230009F918F917F916F915F914F913F912F91FE
:100240000F900FBE0F901F901895A8E142E006C0D6
:100250000196272F10D00EC0A82F862FE82FE199E6
:10026000FECF05C0EEBBE09AE3950DB20D92415072
:10027000C8F70895262FE199FECF8EBBE09A8150F2
:100280000DB2021639F01CBA2DBB0FB6F894E29AE3
:10029000E19A0FBE0895AA1BBB1B51E107C0AA1F1C
:1002A000BB1FA617B70710F0A61BB70B881F991F17
:0E02B0005A95A9F780959095BC01CD0108954F
:00000001FF
